:020000040001F9
:10C00000A04B00208DC4010095C4010097C401001D
:10C0100099C401009BC401009DC401000000000000
:10C020000000000000000000000000009FC40100AC
:10C030000000000000000000A1C40100A3C4010032
:10C04000A5C40100A5C40100D5C90100A5C4010013
:10C05000A5C40100A5C4010081C50100A5C401005B
:10C06000A5C40100A5C40100A5C40100A5C4010028
:10C07000A5C40100A5C40100A5C40100A5C4010018
:10C08000A5C401002DC70100A5C40100A5C401007D
:10C0900051C70100A5C4010055C70100A5C4010096
:10C0A000A5C40100A5C40100A5C40100A5C40100E8
:10C0B000A5C40100A5C401000000000000000000AC
:10C0C000A5C40100A5C40100A5C40100A5C40100C8
:10C0D000A5C40100A5C4010000000000000000008C
:10C0E0000000000000000000000000000000000050
:10C0F0000000000000000000000000000000000040
:10C10000000000000000000000000000000000002F
:10C11000000000000000000000000000000000001F
:10C40000DFF80CD000F08CF800480047B9020200B9
:10C41000A04B0020401E00BF00BF00BF00BF00BFF8
:10C4200000BF00BF00BF00BF00BF00BF00BF00BF14
:10C4300000BF00BF00BF00BF00BF00BF00BF00BF04
:10C4400000BF00BF00BF00BF00BF00BF00BF00BFF4
:10C4500000BF00BF00BF00BF00BF00BF00BF00BFE4
:10C4600000BF00BF00BF00BF00BF00BF00BF00BFD4
:10C4700000BF00BF00BF00BF00BF00BF00BF00BFC4
:10C4800000BF00BF00BFC5D170470000064880470D
:10C4900006480047FEE7FEE7FEE7FEE7FEE7FEE7A9
:10C4A000FEE7FEE7FEE7000079C7010001C40100D6
:10C4B00040EA01039B0703D009E008C9121F08C026
:10C4C000042AFAD203E011F8013B00F8013B521EA6
:10C4D000F9D27047D2B201E000F8012B491EFBD21D
:10C4E00070470022F6E710B513460A46044619467F
:10C4F000FFF7F0FF204610BD421C10F8011B002979
:10C50000FBD1801A704730B504460020034600E096
:10C510005B1C934203D2E05CCD5C401BF8D030BD85
:10C52000064C074D06E0E06840F0010394E8070080
:10C5300098471034AC42F6D3FFF766FF2C20020078
:10C540004C20020030B58C1810F8012B12F00F03AC
:10C5500001D110F8013B120906D110F8012B03E0BC
:10C5600010F8015B01F8015B5B1EF9D101E001F8F5
:10C57000013B521EFBD1A142E6D3002030BD00009A
:10C580002DE9FC5F0025DFF83491A8464FF4807652
:10C5900001242F46304604F019F938B1D9F80403C4
:10C5A000204203D0304604F007F92543361D6400CD
:10C5B0007F1CB6B2082FEDD34FF4BE74204604F0B2
:10C5C00005F938B1204604F0F7F83D4845F000453C
:10C5D000D0F800803B4E15F0FF0F14D00127002447
:10C5E0002F420CD009EB8401D1F81005D1F81015B9
:10C5F000C0F3042056F82420C1F3014190477F0086
:10C60000641C082CECD3002D56DA00200190401E4B
:10C610004CE0701910F8501F90F9000021F0C00490
:10C62000401C38D0012000FA04FA1AEA090F32D06F
:10C630004FEA911B204602F0A9F856F8200000901E
:10C6400010B9BBF1030F26D15146BBF1030F02D144
:10C65000019808430190A00000F1A040D0F8000725
:10C660001AEA080FC0F3014002D0022802D012E0FB
:10C67000032810D1BBF1030F07D102281AD00221E1
:10C68000204604F08AF87F1CFFB2009818B1009A87
:10C690005946204690476D1C042DBAD3002F0BD06D
:10C6A00007480068404507D080460198002781462A
:10C6B0003D46AEE70321E3E7BDE8FC9F0060004094
:10C6C00010050050CC29002000F01F0201219140EC
:10C6D0004009800000F1E020C0F88012704700F0AF
:10C6E0001F02012191404009800000F1E020C0F8C4
:10C6F0000011704700F01F020121914040098000A5
:10C7000000F1E020C0F8001270474907090E002828
:10C7100006DA00F00F0000F1E02080F8141D7047E9
:10C7200000F1E02080F80014704700000748002165
:10C73000C0F84011C0F84411C0F84811C0F84C11BD
:10C74000C0F80011C0F8041105F0D2B90010014082
:10C7500005F06AB9074810B5406830B18047002835
:10C7600007D0BDE8104000F0D7BABDE8104003F094
:10C7700017BC10BD1C220020F0B58C480022041DFF
:10C780000378211D081D0126062B17D125782D07BA
:10C7900014D10D78C5F30315032D03D1077817F0D5
:10C7A000F00F0ED0042D03D1077817F0F00F08D04A
:10C7B000052D03D1057815F0F00F02D0062B09D016
:10C7C00014E04FF08055D5F84452794FC5F3423507
:10C7D0003D6002E025782D0708D10D78C5F30315DB
:10C7E000032D03D1057815F0F00F02D0062B06D0EB
:10C7F0001DE0704D2F6827F080772F601AE02578B4
:10C800002D0714D10D78C5F30315032D03D1077837
:10C8100017F0F00F0ED0042D03D1077817F0F00FAA
:10C8200008D0052D03D1057815F0F00F02D0062BA6
:10C830000AD015E04FF08045C5F80C21C5F810214D
:10C840005B4D2D1F2A6002E025782D0708D10D7859
:10C85000C5F30315032D03D1057815F0F00F02D0B1
:10C86000062B05D066E0524C03236434236002E0BB
:10C8700023781B075ED10978C1F30311052959D12B
:10C88000007810F0F00F55D14B4800684B49086014
:10C890004948001D0068091D0860474808300068C5
:10C8A000091D086044480C300068091D08604248B2
:10C8B00010300068091D08603F4814300068091DE9
:10C8C00008603D48183000683C49203108603A480B
:10C8D0001C300068091D0860374820300068091DB9
:10C8E0000860354824300068091D08603248283047
:10C8F0000068091D086030482C300068091D086078
:10C900002D48303000682D49403108602A483430C5
:10C910000068091D0860284838300068091D086053
:10C9200025483C300068091D0860234840300068F5
:10C93000091D08601F487438016841F470010160E6
:10C94000BFF34F8FBFF36F8F4FF01021D1F800026C
:10C95000002803DBD1F80002002822DA184B1E6001
:10C9600018480468002CFCD01524C1F80042056862
:10C97000002DFCD0C1F8044201680029FCD01A60E7
:10C9800001680029FCD0BFF34F8F0A48F0380168D6
:10C990000D4A01F4E06111430160BFF34F8F00BF06
:10C9A000FDE70B4909480860F0BD0000E00F00F00A
:10C9B0003C050040FCED00E00404001020C50040F0
:10C9C00004E5014000E401400400FA050090D003B2
:10C9D000302200200348007F08B105F073B905F04C
:10C9E000EDB80000242A002002E008C8121F08C188
:10C9F000002AFAD170477047002001E001C1121FE0
:10CA0000002AFBD170472DE9FC5F002516880746F8
:10CA10001580406B14468946A8464FF00C0A112336
:10CA20004FF0020B98B101784846032E48D380F8A6
:10CA300000B02288521C92B2228083542288521C59
:10CA400092B2228009F802102088401C20803A6BA4
:10CA5000DAB12088494600F11205B54230D80B54AE
:10CA600020881023401C80B220800B542088401C5A
:10CA700020800F202388155C401ECD54238840B2AF
:10CA80005B1C23800028F5DA454697F82E0030B16C
:10CA900033462246494603F017FB050011D197F8AB
:10CAA0002D0030B132462146484600F0A1FF050076
:10CAB00007D1B87820B32088C846001DB04202D9FB
:10CAC0005046BDE8FC9F684679DF0028F9D12188EF
:10CAD000032008F8010020881921401C80B2208022
:10CAE00008F800102088401C80B2208000EB08016C
:10CAF000BDF8000005F052F9014620880844208066
:10CB0000F878B8B1228897F90310D31C4846B3428D
:10CB1000D6D800F802B022880123521C92B222809B
:10CB200083542288521C92B2228009F80210208875
:10CB3000401C20807868B8B1218890F90020CB1C77
:10CB40004846B342BCD800F801B021880A23491CEA
:10CB500089B2218043542188491C89B2218009F877
:10CB600001202088401C2080388950B1CDE9004642
:10CB70004B460622022107F1080005F082F9050064
:10CB80009FD1388A50B1CDE900464B460722032198
:10CB900007F1100005F075F9050092D1388B50B1FE
:10CBA000CDE900464B461522142107F1180005F087
:10CBB00068F9050085D1386A30B1334622464946C6
:10CBC00001F094FF0500DBD1786A30B1334622468C
:10CBD000494603F042FC0500D2D197F82C0038B149
:10CBE000334622464946384604F024FD0500C7D1A5
:10CBF000387838B1334622464946384603F05FFC60
:10CC00000500BDD128465CE710B5012202210020B5
:10CC100001F070FB08B1072810D107220221012082
:10CC200001F068FB08B1072808D100210A22084654
:10CC300001F060FB08B1072800D1002010BD000002
:10CC4000064800684FF40021044A8143121D116018
:10CC5000111D00F40020086070470000040500501A
:10CC600070B50024064D06E06868012110F8340014
:10CC700003F096FC641C28788442F5D3002070BD34
:10CC8000D8210020F8B515460C460646052A01D2E3
:10CC90000720F8BD03F066FD18B903F039FD002840
:10CCA000F7D1104900204E600C70C1E902500E4DC2
:10CCB00008610DE006EBC4006968009181788DF889
:10CCC00001100078094A694603F0BCFC0028E0D155
:10CCD000641EE4B2EED2BDE8F840054A00210248E5
:10CCE00000F0ECB8D82100202420020041FB010014
:10CCF0009DEC0100BFF34F8F05480168054A01F420
:10CD0000E06111430160BFF34F8F00BFFDE70000FA
:10CD10000CED00E00400FA050EB500210091CDE90C
:10CD200001106A4644F20100FFF7E4FF0EBD000067
:10CD3000014B1B6818470000A829002038B50C4695
:10CD4000074BA268097802EB420253F82250054AC9
:10CD5000126A0092024604F108002369A84738BD10
:10CD6000102B0020B4210020074910B50A7802EBEF
:10CD7000820201EB8201091DFFF7E0FFBDE81040D0
:10CD8000042004F0B1BC0000442A002070B50F4B11
:10CD9000054605201C785E78A64216D01C781878C7
:10CDA0009E88B04201DA401C00E0002018705E88C6
:10CDB000D86804FB06002860986800EBC4039B88D1
:10CDC0000B8050F834001060002070BDEC21002072
:10CDD0002DE9F84F254C8146924660880E468142E7
:10CDE00041D800274FF6FF788DF80070684600F0B4
:10CDF0003FF922786078A188884201DA401C00E07F
:10CE00000020C0B2904204D19DF8000000F054F917
:10CE100027E065786078884201DA401C00E0002055
:10CE200060709DF8000000F047F9454519D0A068F2
:10CE3000B9F1000F40F835A00DD066B16188E06807
:10CE4000324605FB01004946FFF732FBA06800EBC4
:10CE5000C500868002E000EBC50087800020BDE8A9
:10CE6000F88F0420FBE70920F9E70000EC210020FF
:10CE70000EB504E0029ABDF804100098904702AA8B
:10CE800001A96846FFF782FF0028F3D00EBD00001D
:10CE900030B5CB0008339DB293074FF0000401D0AA
:10CEA000072030BD044B9A602A44DA605C701C7025
:10CEB00058809980002030BDEC210020074B9B68F2
:10CEC00023B12AB120B10068037C1BB10820704750
:10CED000072070474174426100207047FC21002008
:10CEE00010B50446082902D00020FFF715FFD4E949
:10CEF0000010BDE8104008471CB5044ACDE9000108
:10CF000008216846FFF764FF1CBD0000E1CE010068
:10CF10002DE9F0478046994614460F4690074FF09A
:10CF2000000634D11C4D8CB304F07EFA0320C5F802
:10CF30001490287004F11800002107EB4703AC603F
:10CF400004EBC102491C167056709770506000EBDC
:10CF5000C3000329F4DBEE606E70AE701420FFF79F
:10CF6000B3FB06211420FFF7D0FB1420FFF7B7FB1B
:10CF70000A49C1F8008006211120FFF7C6FB0748C7
:10CF8000001F006828610020BDE8F08701E007204D
:10CF9000FAE7AE60FBE70000FC2100200815014025
:10CFA0002DE9F843DFF870900D461746D9F80810C0
:10CFB000044651B34CB3052D02D20720BDE8F883D7
:10CFC000606910B3607C012821D0002604F026FFA0
:10CFD000D9F80810804601EBC800694604F03DFF0F
:10CFE000B8B1012100F8041B0C4910C0096880E8A1
:10CFF000E200D9F8081001EBC8009DF8001041705C
:10D000001420FFF777FB0020D8E70820D6E72E464C
:10D01000DCE70420D2E70000FC21002004150140D9
:10D02000F8B5124E0446B168E1B1DCB16069C8B12F
:10D030000027277404F0F2FE0546B068694600EB4D
:10D04000C50004F00AFF78B1022101704460B068A5
:10D050009DF8001000EBC50041701420FFF74AFB5B
:10D060003846F8BD0820F8BD0420F8BDFC2100209A
:10D0700030B5EFF3108172B60D4A9468012324B1E4
:10D080000370002900D162B630BD93604FF0E023F9
:10D09000D3F88051074C25401560C3F88041D3F880
:10D0A000844154605A17C3F8842100220270E8E7D3
:10D0B000942B0020FC06FFBC0B498A68002A11D083
:10D0C00000280FD1EFF3108072B60B684FF0E0220A
:10D0D000C2F800314B68C2F8043100228A6000288F
:10D0E00000D162B670470000942B002000B585B0D7
:10D0F00014216846FFF7F5F90020009002906420A3
:10D100008DF80C009DF80D00012120F00F00401C4F
:10D1100020F0F00020308DF80D009DF80E008DF805
:10D12000041020F00F00401C20F0F00020308DF89B
:10D130000E009DF80F00694620F0FF008DF80F00EB
:10D140009DF8100020F00F00401C20F0F00020306F
:10D150008DF81000044800F08EFB002801D0FFF786
:10D16000DBFD05B000BD00008C2600202DE9F0435A
:10D170000546007D93B00E460024A0B107949DF8AB
:10D180001C0020F00F00401C20F0F00010308DF843
:10D190001C00707B8DF81D009DF81E0020F006001D
:10D1A000801C8DF81E001C216846FFF79AF99DF837
:10D1B000000040F002008DF80000297D11B140F020
:10D1C000100001E020F010008DF80000019403949D
:10D1D0000494287D00B107A8CDE9050401278DF846
:10D1E000427042F61920ADF840000D94B07B8DF8E6
:10D1F0003400F07B8DF835009DF83600142120F0C6
:10D200000600801C20F019008DF83600307B8DF868
:10D21000440008A8FFF765F90DF140080DF1340945
:10D22000ADF8287011A8CDE90889ADF82A40ADF80D
:10D230002C700C90A888AB1D08AA6946A2DF0028B4
:10D2400038D1B06898B38DF8427042F60810ADF846
:10D2500040000D94307C8DF834009DF8350020F0AE
:10D26000FF008DF835009DF8360020F00600801C88
:10D2700020F019008DF836000EA8B16800F01CFEF1
:10D280000646142108A8FFF72CF9ADF828600EA86F
:10D29000CDE90889ADF82A40ADF82C600C90E888FB
:10D2A00005F10E0208A9A3DF002803D101E0FFE782
:10D2B000EC81002013B0BDE8F083000010B50D49EB
:10D2C0000D4804F0AAF9C1B20A48183800F096FADD
:10D2D00000280DD008280BD0A0F54051043907D004
:10D2E00043F20141884203D0BDE81040FFF714BD6E
:10D2F00010BD0000A4260020A8200020F0B50C4698
:10D3000093B01F210726ADF80010ADF804100027D8
:10D3100050B1C17849070DD56A4602A9FFF773FBE2
:10D32000002808D102AD02E00025ADF800706CB114
:10D33000E07810B1304613B0F0BD01AA0AA920462A
:10D34000FFF761FB0028F6D10AAA02E00022ADF83F
:10D350000470BDF80400C3B2BDF80000C1B2284695
:10D3600072DFE8E7FFF7D8BC70B50D4604991646A2
:10D37000040040D0F6B3414800224271C0E90331B5
:10D38000242231463E48FFF793F800F0EDF83C497F
:10D390003431A1F1100001602031816038215C3806
:10D3A000FFF79FF83648217838380170A1788170EE
:10D3B000E178C17061784170D4E90412C0E90412C7
:10D3C000D4E90212C0E90212D4E90612C0E9061239
:10D3D000616AD1B100F1AC0100F1B80241628A602A
:10D3E000636A1B880B80616A436A8988998000217F
:10D3F000436A07E0FFE70E2070BD666AB668765C98
:10D400005654491C9E888E42F7D8A16AD9B11C4A4D
:10D41000AC32A2F10C018A608162A36A9B888B8086
:10D42000A16A836A098819800021836A04E0A66AD8
:10D43000B668765C5654491C9E888E42F7D894F89C
:10D440002C1080F82C10216A49B10C49143101626A
:10D45000226A52884A80216A026A098811806168BA
:10D4600021B10649891D4160616841602946BDE8D6
:10D47000704003483838FFF741BF00001C210020EE
:10D480009827002010B502881D4C102A18D00021C2
:10D49000112A1BD01B2A18D1007A002815D16079D7
:10D4A000012820D0022824D0032824D004280CD11D
:10D4B0002171E2680846002A07D0BDE810401047F5
:10D4C000817D012901D18088208110BD6170808813
:10D4D00021898842F9D1012006E021690029F4D090
:10D4E000BDE810400847022000F06EF80028F4D193
:10D4F00010BD0320F8E7032020710420F4E70000AA
:10D500001C21002010B5022801D0032810D1094C9D
:10D51000207800280CD000202070607900F054F8AA
:10D52000002805D02169002902D0BDE81040084735
:10D5300010BD00001C21002030B50A4BD97871B114
:10D5400003F118020178117000214418551864780D
:10D55000491C6C700629F8DB0020D87030BD08200B
:10D5600030BD00001C210020024800218161818320
:10D57000817770471C210020114810B500780128E0
:10D580001BD1104C6078C0B9607910B174DF0028ED
:10D5900014D10B490120607038390620C870084842
:10D5A00000213838FFF7AAFE002807D1607900F083
:10D5B0000BF810B1216901B18847002010BD0000AF
:10D5C000982700201C2100202DE9F04F744C87B0D3
:10D5D0000026607106A8069603F0A4FB0127082820
:10D5E00001D030B903E006A802F086F918B9069810
:10D5F00008B12770C0E0FFF7B7FF6A4DDFF8A081E0
:10D600004FF0020A687808F118084FF0030B10B1C8
:10D610006079012806D0A87858B16079012801D036
:10D6200002281FD1E16819B1E7700820884700E09F
:10D63000E6706079012806D1687840B108F10100F0
:10D6400003F0CFFA18B16079022802D00AE084F81A
:10D6500005A0A87820B108F1010003F0C2FA08B9CA
:10D6600084F805B0287B4FF0040920B960790328BD
:10D6700001D184F80590287E20B96079042801D171
:10D6800066712671E16841B16079032801D00428F0
:10D6900003D1287808B16078C0B1A6701821684617
:10D6A000FEF71FFF8DF8006001968DF80860039665
:10D6B000607901280ED0022816D03A4E2436A6F101
:10D6C0005C0703281DD004284CD13AE0A77007203E
:10D6D0008847E3E7ADF81260CDF804808DF800705C
:10D6E000ADF8106027713FE0CDF804808DF8007030
:10D6F0002889ADF81200A888ADF8100084F804A0BD
:10D7000032E0A88AADF81200288AADF8100025484A
:10D71000243004F01DFC18B1287808B1607810B1ED
:10D7200084F804B01EE01F488DF808A0039687F81F
:10D73000039000213838FFF7E1FD00281DD10520B6
:10D740002BE0A88BADF81000288CADF8120015481E
:10D75000243004F0FDFB18B1287808B1607878B166
:10D7600084F80490607918B1684673DF002804D10A
:10D77000E16809B120798847002007B0BDE8F08F43
:10D7800008488DF808A0039687F8039000213838E0
:10D79000FFF7B4FD0028F0D106202071E2E7000079
:10D7A0001C2100209827002070B5124B997841B1B8
:10D7B00011490279104D0A71047B0C730021303538
:10D7C00007E0082070BD866856F8216045F82160A2
:10D7D000491C8C42F7D8084C0021103405E005683C
:10D7E00055F8215044F82150491C8A42F7D80020AE
:10D7F000987070BD1C210020BC27002073B586B036
:10D80000040034D0217C9DF81C20002091422CD0B3
:10D81000002501260095ADF8006007A8ADF802507C
:10D820000190E188608A6A46A4DF00281DD19DF836
:10D830001C002074608AA0F57F41FF3919D0207D3B
:10D84000B8B10295039504950595E088ADF80800F8
:10D85000BDF80200ADF80C0001988DF80A60CDF813
:10D8600010D00590608A02A9A6DF08B070BD0E2016
:10D87000FBE70820F9E738B50D4604001BD0D5B109
:10D88000286820604FF6FF70608228792075FF209D
:10D89000207401208DF8020041F60F00ADF8000061
:10D8A000221D69460120A0DF002803D12946204619
:10D8B000FFF75CFC38BD0E2038BD08B5002821D02C
:10D8C00000291FD00A88102A17D0112A17D0502AF1
:10D8D00018D1027D002A15D031F8062F43899A42CB
:10D8E00010D14A89022A0DD10268002A0AD0097B88
:10D8F00011F0010F07D0002106E0898801E04FF602
:10D90000FF71418208BD01218DF8001069469047E2
:10D9100008BD000070B5054601461C220F48FEF701
:10D92000C7FD0F4C00262670286830B10168616081
:10D930004068A060201D7ADF02E00948001D7BDFFF
:10D9400000280AD14FF6FF7060806670BDE8704015
:10D95000044A00210448FFF7B1BA70BD84280020B2
:10D960003C210020BD1D0200C81F020070B51E4CE6
:10D97000068800251B49E289102E15D01B4B112E5D
:10D980001CD0122E29D0502E17D130F8061F9142EC
:10D9900013D14189022910D1007B10F0010F11D061
:10D9A000BDE8704001F0E8B883884B808369CB60A4
:10D9B000C06908614D70002AF2D070BD4FF6FF704B
:10D9C00048804D701868FFF72BFB0028F5D0A1693F
:10D9D0000029F2D0BDE8704008478268CA60C0687C
:10D9E0000861DDE73C21002084280020C81F0200D8
:10D9F0007CB5054608880C460930904201D90C20B8
:10DA00007CBD684671DF0028FAD12188082068545F
:10DA100020881B21401C80B2208029542088401C73
:10DA200080B220802844DDF801100160BDF80510A7
:10DA300081802088801D80B220809DF8001001B177
:10DA4000012129542088401C208000207CBD00003A
:10DA50007FB5044601208DF8060041F60A00ADF8B6
:10DA60000400454A01A90120A0DF00287ED12288B8
:10DA700004F13C0552B140482B46801C009042F610
:10DA80002920616800F08AFE002873D1228952B1F2
:10DA900039482B460A30009042F62420E16800F015
:10DAA0007DFE002866D1228A52B133482B461230BF
:10DAB000009042F62520616900F070FE002859D1DF
:10DAC000228B52B12C482B461A30009042F6272068
:10DAD000E16900F063FE00284CD1228C52B1264847
:10DAE0002B462230009042F62620616A00F056FE56
:10DAF00000283FD1228D52B11F482B462A3000907A
:10DB000042F62820E16A00F049FE002832D1216B5C
:10DB100071B102A803F05DFF17482B463230009028
:10DB2000082202A942F6232000F038FE002821D165
:10DB3000606B58B110492B463A3100910279016867
:10DB400042F62A2000F02AFE002813D1A16B81B1F1
:10DB500002A803F087F808482B46423000900722BD
:10DB600002A942F6502000F019FE00E002E0002871
:10DB700000D1002004B070BD5021002010B5044633
:10DB800001F0E4F9204600F0D1FA204602F088FEC8
:10DB90002046FFF777FC2046FFF7E8FE21460448C1
:10DBA00000F01EF92146BDE810400248FFF785BE8F
:10DBB000142500208C26002010B50C46B0F87611F4
:10DBC00086B0A1F57F43FF3B1FD00021ADF8004098
:10DBD0000191029103910491B0F84E31ADF80430F7
:10DBE0000123ADF808108DF806306946CDE903121F
:10DBF000B0F8760101A9A6DF002804D1BDF8001015
:10DC0000A14200D00C2006B010BD0820FBE7F0B503
:10DC10000546887A85B00C460A2805D8207C0A2853
:10DC200002D8207E0A2802D9072005B0F0BD20685E
:10DC3000286060686860A07AA874207C85F8780005
:10DC4000207E85F8DE004FF6FF70A5F876010120F2
:10DC50008DF80E0041F61200ADF80C0005F1080237
:10DC600003A90120A0DF0028DFD1002609E0A06B76
:10DC70006A4630F816102889A1DF0028D5D1761C15
:10DC8000F6B294F83600B042F1D8207A002708B9ED
:10DC9000607A30B104F13C01284602F0FDFF002813
:10DCA000C3D12146284602F03FF90028BDD12146C4
:10DCB000284602F066FF0028B7D1207E30B3E06925
:10DCC00020B300261FE0E069049700EBC6039DF82F
:10DCD000100006EB860140F00A008DF8100005EBFD
:10DCE0004100D979E03001F00102191D0091CDE920
:10DCF000012033F8022B04A9284603F01BFA002860
:10DD000093D1761CF6B2207EB042DCD8214628465C
:10DD100003F0A9FA002888D1207A90B105F5A77000
:10DD2000009004F14303082242F62221284600F025
:10DD30002BF9002898D12146284600F08DF90028BB
:10DD400092D1607A60B105F5AF70009004F14003A4
:10DD5000082242F63321284600F016F900288DD11A
:10DD60002146284601F099FF002887D104F13E01A1
:10DD7000284601F04DFF58E730B51446827C85B047
:10DD80008A422BD901EB8101B0F8762100EB4101E9
:10DD90001431A2F57F45FF3D1ED00022ADF80040B2
:10DDA00001920292039204920988ADF804100121B5
:10DDB0008DF80610ADF808206946CDE90313B0F8D8
:10DDC000760101A9A6DF002804D1BDF80010A14208
:10DDD00000D00C2005B030BD0820FBE70720F9E794
:10DDE00030B50446088887B0102820D011283BD0D1
:10DDF00050283ED0512818D10D4611F8060F0128A1
:10DE000013D1498801AA204603F0CCFA00280CD08F
:10DE100021682046002908D007218DF808100199B3
:10DE200006950391026802A9904707B030BD888823
:10DE3000A4F8760160890028F7D001200021009124
:10DE4000ADF800008DF8080002A8ADF802100190AE
:10DE50006189B4F876016A46A4DF0028E5D06168DC
:10DE60000029E2D08847E0E74FF6FF70A4F876017A
:10DE7000DBE707B02046BDE8304002F005BE7CB5C8
:10DE800000250095ADF80020069C01EB8101ADF85E
:10DE9000023000EB41010194B1F87A10B0F876013C
:10DEA0006A46A5DF7CBD70B504460D460846FEF700
:10DEB00023FB2080656070BD0A780270497841704C
:10DEC0000220704700B5184887B0184B406805908D
:10DED0004822174905A803F05FFC08B1FEF71CFFB4
:10DEE0006A460121002003F031FC08B1FEF714FF5F
:10DEF000104803F0DFFA08B1FEF70EFF684603F0A2
:10DF00001BFC08B1FEF708FF0B4803F00BFC08B13F
:10DF1000FEF702FF094803F059FC002801D0FEF784
:10DF2000FBFE07B000BD0000601F02008517020065
:10DF30001C240020E81F00207DDB0100C119020025
:10DF40001CB5044681786A460C4802F0FDFE0028A4
:10DF500013D160780A49C0EBC00001EB80001C239C
:10DF60001A46694602F09AFF054806494430807A0D
:10DF700051F820202146684690471CBDAC21002066
:10DF800064290020DC1F02002DE9F0438FB000243B
:10DF9000DDF85890804607949DF81C000F4620F04D
:10DFA0000F00401C20F0F00010308DF81C00187895
:10DFB0008DF81D009DF81E001D4620F00600801CF7
:10DFC0008DF81E0016461C216846FEF78AFA9DF859
:10DFD000000040F002008DF80000A978090702D087
:10DFE00040F0080001E020F0080040F010008DF83B
:10DFF000000007A8CDE904400120019403948DF8A6
:10E000003A000694ADF838700D9468788DF83400B5
:10E01000A8788DF835009DF83600142120F0060010
:10E02000801C20F019008DF8360008A8FEF759FA78
:10E030000EA808900DA8ADF828400990ADF82A4028
:10E04000ADF82C600C94B8F808004B4608AA694655
:10E05000A2DF0FB0BDE8F083F0B58FB00E460546E5
:10E060001C216846FEF73DFA00249DF80000039449
:10E0700040F00E008DF80000012701948DF83670F5
:10E0800042F63220049405940694ADF834000C94C2
:10E0900016F8460F8DF8300070788DF831009DF835
:10E0A0003200142120F00600801C20F019008DF8A9
:10E0B000320007A8FEF715FA0DA807900CA8ADF8D6
:10E0C00024400890ADF82640ADF828700B942889BC
:10E0D00005F5AB7307AA6946A2DF0FB0F0BD0000DB
:10E0E0007CB5114E0C004FF00005306015D069462C
:10E0F000002000F0B1F8002815D101A9012000F09E
:10E10000ABF800280FD19DF8041009B1022003E0FC
:10E110009DF8001001B10B202070706810B9FEF757
:10E1200073FD054628467CBD1421002010B51A4C0D
:10E130000188606810290ED011292BD1401E606023
:10E1400028D1FEF761FD002824D02168002921D0C4
:10E15000BDE810400847D0B900210122084600F070
:10E16000C9F808B107280FD107220221012000F0C9
:10E17000C1F808B1072807D104220221002000F0CD
:10E18000B9F820B1072802D0216801B1884760683A
:10E19000401C606010BD00001421002010B5032059
:10E1A00000F03AFA08B1062800D1002010BD0000A6
:10E1B0002DE9F04707460024244802E0641C042CA3
:10E1C00041D250F82420BA42F8D1042C3BD21F4847
:10E1D000DFF87C901F4E0C38A9F1140841B30129D7
:10E1E0000FD002292FD104EB440030444578002D94
:10E1F00029D0D8F81010002925D02846BDE8F047CE
:10E20000084704EB4401755C0E44717861B1D8F89D
:10E2100004100F4A01EB81014900133A8068FEF7B0
:10E22000BFFE08B988F80170B17809F80410DEE77C
:10E230008068FEF7F5FE04EB4401314419F8040050
:10E240008D78A842D3D0BDE8F0870000981F020067
:10E25000102100203427002004280CD2074A12681D
:10E26000074B13F8203001209840904300D0012044
:10E270000870002070470020FAE7000010050050E9
:10E28000981F020010B51A4C042821D0072829D065
:10E290000A2819D00D2816D1A088A0F57F41FF3992
:10E2A00011D00120E16801F0E9FEE068401CE06067
:10E2B000A078401CC0B2A070062804D104F114005C
:10E2C000E0600020A07010BDBDE8104003F0F8B978
:10E2D0001321A08876DF07E00028F4D0BDE81040C5
:10E2E000FEF71ABDFFF748F90828F5D110BD000068
:10E2F0008020002070B50023042810D20D4D00EBC3
:10E300004004012A02D101290CD00022094E00EB61
:10E310004000304461B1012906D0022906D007230C
:10E32000184670BD0D30C2B22A55F9E74270F7E7C2
:10E330008270F5E734270020044A01460020127A53
:10E34000D20702D0084600F055B87047FC200020E4
:10E3500070B50E462149054600200A61C1E90165F4
:10E36000A9071BD50024012211462046FFF7C2FF52
:10E37000641C042C02D20028F5D00FE070B972089A
:10E3800004211748FEF77EFC40B9FEF769FC28B966
:10E390001348144A00211438FEF790FDE9070AD00B
:10E3A000114A4FF4F01111600F4B00221B1D1A602F
:10E3B0000D4A1032116000280FD109480B4A002184
:10E3C0001C38FEF77BFD002807D1BDE870400448EB
:10E3D0000121074A1838FEF771BD70BDFC200020EE
:10E3E000A81F020021E70100080500501D010200DE
:10E3F00041CC01002DE9F84F854EDFF810A24FF413
:10E40000E01CF16807462CEA010C009100207168BD
:10E410000AF10404251D7F4B4FF400324FF4802B8A
:10E4200001EB810E8146182F16D2DFE807F00C179A
:10E43000173A4E607083868F868FEAA0A0A0A0A0B6
:10E44000CAD1D8E1EAEA009A4FF4F0119143216071
:10E45000C5F8009086F80090BDE8F88FC4F800C0B9
:10E460004846C5F80090DAF800C08CF4F01C5FEA6A
:10E470008C3C09D522602860022F02D14FF4E16064
:10E4800008E04FF47A6005E02A602060022F3CD05B
:10E490004FF4C8706422B0FBF2F0414337700022A1
:10E4A0005EE0C4F800C04846C5F80090DAF800C045
:10E4B0008CF4F01C5FEA8C3C04D5226028604FF499
:10E4C0004870E7E72A6020601FE0C4F800C04846B3
:10E4D000C5F80090DAF800C08CF4F01C5FEA8C3CC0
:10E4E00002D522602860CCE72A602060D0E7C4F81B
:10E4F00000C04846C5F80090DAF800C08CF4F01C63
:10E500005FEA8C3CDED522602860C820C2E7C4F8F0
:10E5100000C04846C5F80090DAF800C08CF4F01C42
:10E520005FEA8C3C02D52260286001E02A6020600E
:10E53000377014E0C4F800C04DE0DAF800002BEAB0
:10E540000002226000F48020286008E0DAF8000071
:10E550002BEA0001216000F480202860714600222F
:10E560001868BDE8F84FFEF71BBD21602EE0984605
:10E570005868FEF755FDD7F1110100D040B1F168A0
:10E5800001F4F0112160C5F80090C6F80C9063E723
:10E590004FF40022F26001290CD9C82011FB00F1D0
:10E5A0006420B1FBF0F1706800224143D8F8040008
:10E5B000FEF7F6FCF16801F4F0112960C4F8009050
:10E5C0004AE74FF4F0112160C5F80090377043E737
:10E5D0004FF4E01121604946C5F8009006E04FF481
:10E5E000D01121604946C5F800905A462A60BCE720
:10E5F0004FF4C01121604946C5F800904FF4C02285
:10E60000F4E74FF4F01129604946AEE704050050E5
:10E61000FC2000208C1F020070B500210C4D01244D
:10E6200055F82120920002F1A042D2F8006704FAC6
:10E6300001F3034000D0032326F4403646EA0343A7
:10E64000C2F80037491C0429EAD3002070BD00003D
:10E65000981F02007CB51D4C0146002094F83E2016
:10E66000CAB194F83C2002EB420204EB8205A1B14E
:10E6700001A80090D5E901102B786A7802F066FFB6
:10E68000A0F54051043908D16A78BDF804108A42D7
:10E6900003D329707CBD05207CBD94F83C2000216B
:10E6A00002EB420204EB8202516094F83C20521CBF
:10E6B000D2B284F83C2094F83E305B1E84F83E30A1
:10E6C000052AE9D184F83C107CBD0000B426002066
:10E6D00070B5124C0646002094F83E50062D1AD014
:10E6E00094F83D5005EB450504EB8505C5E9011699
:10E6F0002B706A7094F83E10491C84F83E1094F810
:10E700003D10491CC9B284F83D10052902D10021F1
:10E7100084F83D1070BD042070BD0000B4260020B8
:10E7200000780221FFF744BD05494FF0FF32082869
:10E7300041F8202002D3084480F8482070470000A8
:10E74000CC290020F0B54FF0FF3512B10023082688
:10E7500001E008230C260C4C05E000BF54F82370A0
:10E760007F1C04D05B1CB342F8D32846F0BD2618AA
:10E770005DB286F8305044F82310002AF5D1E11834
:10E7800081F84800F1E70000CC2900200249084444
:10E7900090F9300070470000CC2900202DE9F043AB
:10E7A0008FB01E46DDF8589015460F00804602D106
:10E7B0000020FEF7B1FA15B90020FEF7ADFA1C21D2
:10E7C0006846FDF78EFE00249DF80000039440F09B
:10E7D00002008DF80000012001948DF836000494A9
:10E7E00005940694ADF834800C9430788DF83000A0
:10E7F00070788DF831009DF83200142120F0060069
:10E80000801C20F019008DF8320007A8FDF769FE82
:10E810000DA807900CA808900748ADF82450ADF853
:10E820002640ADF828500B974B4607AA694600884A
:10E83000A2DF0FB0BDE8F083502100202DE9F041A8
:10E840003B48017801EB810100EB8104D4E9030628
:10E8500000EB40013648241DCC3000EB8100B0F8BD
:10E8600008804589476802F0EEFAB6FBF0F100FB3C
:10E87000116088B35FF0000008FB05776188A2880B
:10E88000DFF8B08011448D190022C8F8102040B183
:10E8900002F0D9FA6188884221D0BD4201D1A08816
:10E8A000E8B1A06802281AD002F0CDFAA188444647
:10E8B0003144B1FBF0F200FB12108008C8F80C00E4
:10E8C00002F0C1FAB5FBF0F100FB115078B1002065
:10E8D000BD4228D068B126E0FFE70120CCE702F076
:10E8E000B2FAB6FBF0F10320C8F814101CE00120C6
:10E8F000EEE7ADB2BEB202F0A6FAB6FBF0F702F058
:10E90000A2FAB5FBF0F0874201D1701B09E002F0DA
:10E910009AFA064602F097FAB5FBF0F100FB1150A7
:10E92000301A800820610220BDE8F04102F0DCBE10
:10E93000442A0020B42100200648017801EB81011F
:10E9400000EB81000079042801D000F059B80120C3
:10E9500002F0CABE442A00200A480B4A017801EBA3
:10E96000810100EB8100C18811620079012805D086
:10E97000032801D0042804D1FFF760BF012002F072
:10E98000B3BE7047442A0020B421002000EB80026F
:10E990000548002100EB820001220171C180C0E91D
:10E9A0000321416101817047442A00202DE9F04193
:10E9B000114D069E6C780A2C1BD02F783C440A2CF3
:10E9C00000D30A3C04EB840405EB840420716261EB
:10E9D000D1E90001C4E90301E38026816878401C85
:10E9E00068700648007808B9FFF7B6FF0020BDE858
:10E9F000F0810420FBE70000442A0020B42100201D
:10EA000010B50E4C207800EB800004EB8001002054
:10EA1000091DFEF793F92078FFF7B8FF6078401ED4
:10EA200060702078401CC0B220700A2801D10020FC
:10EA30002070BDE81040002002F056BE442A00209D
:10EA40002DE9F05F2648C168F1B3DFF898B00E6891
:10EA50008146DBF800400769C078E11B21F07F4563
:10EA6000ED1CB0B9DFF880804FF48030C8F8440363
:10EA7000C8F804031120FDF727FE1120FDF72FFE33
:10EA80004FF0010AC8F800A02F20FDF7C3FC89F859
:10EA900003A0B54200D23546124BE8193C3320F0B2
:10EAA0007F401860DBF800105A46091B21F07F41B7
:10EAB000001B20F07F40C91C81420FD910681860EC
:10EAC0002F20FDF7A7FC00E004E0BDE8F05F112077
:10EAD000FDF710BEBDE8F05F02F0A6BCBDE8F09FF8
:10EAE000FC21002004150140001001402DE9F041F7
:10EAF00017880646B81D14460D46984202D90C20C8
:10EB0000BDE8F0813188072206290AD34FF4486C0A
:10EB10004FF6FF73614501D9994202D170880628EA
:10EB200001D21046ECE7604501D99842F9D19942EB
:10EB300003D0984201D08142F3D80520E8552088BF
:10EB40001221401C80B2208029542088401C80B2B1
:10EB500020804119308803F021F92188084480B2CF
:10EB600020804119708803F019F921880844208019
:10EB70000020C5E7FEF7D0B8F8B5134801F048FA11
:10EB8000114D0026114C0C3D30B16169B9B1012025
:10EB90008DF80000684611E0287820B1616971B1F4
:10EBA0008DF80060F6E7687858B1A168084800223F
:10EBB0000068FEF7F5F910B1A16901B188472E7020
:10EBC000F8BD6168F2E70000482100208428002099
:10EBD000C81F020070B5094B044608209E7A002524
:10EBE0000E4208D0A4F57F40FF3802D01889A04219
:10EBF00002D10020156070BD052070BD9C29002049
:10EC000000EB40020748012100EB820081724FF6C1
:10EC1000FF710181FF21C17200210160818081713A
:10EC2000704700009C29002010B5134C2079000784
:10EC30001ED46069401C6061E06808B104200AE0ED
:10EC400001F0F4F908B1022005E0206960B16068C4
:10EC5000C10704D00320BDE8104002F0A7BE40F079
:10EC6000010060600020F6E7BDE81040FFF764BED9
:10EC7000BDE8104002F090BEB4210020064948686B
:10EC8000020707D4820702D540F001004860022045
:10EC900002F08CBE02F080BEB42100202DE9F041CC
:10ECA00000260125144C22E06068226900EBC607AB
:10ECB000387805FA00F1114217D08A43226101F039
:10ECC0001DFD02463878E36805FA00F1194002FAA2
:10ECD00000F3994209D17978012901D0012100E09E
:10ECE000002151407A6802B19047761CF6B2207834
:10ECF0008642D9D3BDE8F081D82100202DE9FC411E
:10ED00000E46044681786A46254802F01DF8002820
:10ED100029D16078234F00EB400007EB8000807A18
:10ED2000400622D4022E20D0012E20D01E4D1D4997
:10ED3000A078FC39C0EBC00001EB800100231C224D
:10ED40006846A847A8B1022E0DD02078154900EBDF
:10ED500040000C3101EB80001449807A51F82020EA
:10ED6000214668469047BDE8FC81114DDFE7114D13
:10ED7000DDE7022EF7D0607800EB400007EB800063
:10ED8000817A21F040018172064960783839C0EB00
:10ED9000C00001EB80011C231A466846A847D4E74F
:10EDA000AC2100209C29002021190200CC1F020068
:10EDB000B5100200ED0F02002DE9F04705250F4FB9
:10EDC0009046894606460024C4EBC40007EB800049
:10EDD00036B1072231461030FDF795FB18B106E039
:10EDE000018B414503D10025C9F8004002E0641CB5
:10EDF000072CE9D32846BDE8F0870000A0280020B2
:10EE00007CB5054681B26A46074801F09DFF0400C3
:10EE100008D15821684601F0BDFF040002D1284600
:10EE200001F0EAFE20467CBDAC21002070B505460D
:10EE30000C46100001D0FDF76FFF2078142801D098
:10EE4000212802D1024829680161002070BD00001C
:10EE5000802000201FB58DF80C001B4800F0A1FA9F
:10EE600008B1FDF759FF01F0F3FF08B1FDF754FFBA
:10EE700003A800F0A1FA08B1FDF74EFF0020CDF87D
:10EE800005008DF809009DF80500694620F07E0018
:10EE900040F00100303020F080008DF805000720A0
:10EEA0008DF8060010208DF807000848009001201A
:10EEB0008DF8040004480D3800F0D4FB002801D080
:10EEC000FDF72AFF1FBD0000902000202DEE01005D
:10EED00000B593B002208DF8400041F61510ADF852
:10EEE00042004EF6EE60ADF844000120ADF8460059
:10EEF00040216846FDF7F5FA0FA16846FEF7D3FFFB
:10EF000010A80E909DF83C0020F00F00401C20F04F
:10EF1000F00020308DF83C009DF83D0020F0FF000F
:10EF20008DF83D006846FEF793FD002801D0FDF7FF
:10EF3000F3FE13B000BD00004E6F72646963536549
:10EF40006D69636F6E647563746F72002DE9F04FC5
:10EF5000054693B0FA48FF24079400784FF0000A62
:10EF6000002853D0F74E306800284FD001A800F099
:10EF700018FA08B1FDF7D0FE281D05902C20ADF839
:10EF800018000027FF208DF806008DF80470009708
:10EF9000EC4C28880C3CBB4610280FD0A8886A4649
:10EFA0000221FFF717FE48B9009800EB400104EB7F
:10EFB0008101C97A8DF806108DF80500DFF8849379
:10EFC0002888A9F144091321A9F1C408192874D08B
:10EFD00010DC10281DD011285DD013286ED0142805
:10EFE00014D1009800EB400004EB8000C07AFF28A9
:10EFF0007CD099E0D44A1A2876D01E2875D05228A1
:10F0000004D1B07A52F8201001A8884713B0BDE8A7
:10F01000F08F4FF6FF766A4601213046FFF7DAFDA2
:10F020000028F3D10099022201EB410004EB80009B
:10F03000827211228DF810208DF80510A9880181A7
:10F04000A9680160A9898180A97B8171E87DC107D8
:10F0500008D0BB49083101EB50000078FF2809D0E7
:10F06000079007E0324607A905F10800FFF7A4FE64
:10F0700000280FD10099079801EB410104EB8101B1
:10F08000C8728A7A42F008028A728DF8060001A8D6
:10F09000FEF756FF6FE1009800EB400004EB8001A3
:10F0A000887A20F002008872010708D500060FD583
:10F0B000002101A8FFF722FE0AE0BDE043E09DF831
:10F0C0000600FF2804D001F097FDFF208DF8060010
:10F0D0000099102001EB410104EB8101887212209C
:10F0E0008DF8100047E101E0FDE042E12A8A07A91E
:10F0F0000020FFF761FE78B90098079900EB400007
:10F1000004EB8000C172827A42F0080282728DF8AC
:10F11000061001A8FEF714FF009800EB400004EB76
:10F120008000C07AFF2804D00098C0EBC00109EB32
:10F13000810A00980023C0EBC00108EB8102A88877
:10F14000514686DF62E700988DF8101000EB400012
:10F1500004EB8001887A40F004008872CA7AFF2AA2
:10F160000BD040F040008872162000238DF810006C
:10F17000A8881A4685217FDF33E00DF11C0C48F288
:10F18000430300204FEA0802C0EBC00802EB8808E6
:10F1900098F81A80B8F1FF0F26D0401C0728F3D347
:10F1A0004FEA03070099CDF830B001EB410304EBBF
:10F1B0008303DB7AC3EBC30302EB8302CDE90D2BA0
:10F1C000C1EBC10209EB8201CDE9081BCDF83CB0CF
:10F1D000CDF828B0CDF82CB0321DA88808AB00219E
:10F1E0007FDF0028AED1C6E00B78022B12D0C0EB37
:10F1F000C00302EB83034FF0FD0883F81A80D1F8B7
:10F200000080C3F81080B1F80480A3F814808979D5
:10F21000997505E0C0EBC00102EB8101FE238B76FE
:10F220008CF800000099079801EB410104EB810183
:10F230008DF80600C872B5E7707A20F00100707290
:10F24000009E06EB460304EB8300817A21F0040262
:10F25000827214218DF81010297A31B1510603D42D
:10F26000C07AFFF7CDFD2F7A85E0697A490739D555
:10F270009DF80610FF297ED042F0080282726A7B58
:10F28000920707D5C1EBC10508EB8502957E25F0F5
:10F2900001059576C27AFF2A6DD014F82320022A40
:10F2A0000ED0C1EBC10208EB820102680A618288BC
:10F2B0008A8280798875887E20F0020088760DE049
:10F2C000C6EBC60209EB8200C1EBC101428A08EB22
:10F2D00081000283817E21F001018176012101A854
:10F2E000FFF70CFD47E0287A0121B1EB101F2DD16B
:10F2F00000F00F00012829D1009800EB400104EB39
:10F300008101897A090721D50E49C0EBC00028394F
:10F3100001EB800014210830FDF7E3F816208DF88A
:10F320001000009800EB400004EB8000817A41F06F
:10F3300060018172707A40F00200707217E0000084
:10F340009C210020A8290020EC1F0200009800EB5F
:10F35000400004EB8000817A41F080018172152029
:10F360008DF81000B07A52F8201001A888470027C5
:10F3700001E08DF810103A4604A901A8FDF7D8FC69
:10F380009DF8100012287FF4DDAE009800EB4001DC
:10F3900004EB8101897A01293FF4D4AEFFF730FCF8
:10F3A00034E630B1FF21017041708170C1700020DE
:10F3B000704748F20E0070472DE9FF4105003AD032
:10F3C0002B4800240460447284722046FFF718FC26
:10F3D00027481C212838FDF784F80026DFF89480A0
:10F3E000FF27304601F008FC08F80670761C072E4F
:10F3F000F7D35820ADF804000720ADF806001E48EA
:10F400001C4900900831684601F096FD00280FD194
:10F41000184E0120083E3070287878B1BDF80400FD
:10F42000BDF80610484381B206F1100001F0B2FCAD
:10F4300004B0BDE8F08148F20E00F9E70F4F002557
:10F440000C48A9B202AA083001F07EFC48B9C5EB0D
:10F45000C50007EB800000231C2202A901F01EFD5D
:10F4600008B13470E4E76D1C072DE9D3E0E7000034
:10F47000A8290020A4210020FDF40100A0280020DC
:10F480001B4A137848F20802F3B1931D18B111B169
:10F490000378CBB901E018467047164B1B689BB147
:10F4A000837848F20502FF2B10D01348C3EBC30347
:10F4B00000EB8300837E9B0706D402690A60828A80
:10F4C0008A80807D88710022104670474078FF282E
:10F4D000FAD000EB400307480C3800EB8300837A36
:10F4E0009B07F1D502680A6082888A808079E9E703
:10F4F0009C210020A8290020A02800202DE9F04709
:10F500008046554892B01E4600681A9F924689462A
:10F51000002850D0582F4ED86846FFF742FF08B158
:10F52000FDF7FAFB00248DF800408DF80440CDE98A
:10F5300005762546A9B20FAA484801F005FC28B96E
:10F5400008220FA94046FCF7DEFFE8B16D1C072D2D
:10F55000F0D300BF9DF80200FF282CD020254022C8
:10F560000DF11008B9F1030F11D03D4F1C21F31B11
:10F57000B3FBF1FC0123BCF1070F2AD2CDF80880C0
:10F58000BAF1000F1AD01FE08DF80250E2E7582FB1
:10F5900002D08DF8042001E08DF804509DF804009D
:10F5A00040F003008DF80400524601A96846CDF8EA
:10F5B0000880FDF7BDFB12B0BDE8F0872749834006
:10F5C000103949680B42F6D002F0EEFB8DF804507A
:10F5D00037E0DFF884C0ACF1440CA6EB0C00B0FBC4
:10F5E000F1F040B10CF11C00351AB5FBF1F1C9B1D5
:10F5F0008DF80420DFE71848CDF808808DF8045016
:10F600008DF801400C30CDF81CC0CDE90B409DF8C1
:10F610000200C0EBC00007EB8000089007A8CDE90E
:10F6200005500EE030218DF804100B498DF8014093
:10F630000C398DF80330897A890702D41C21FCF734
:10F6400050FF9DF80400B9F1020F02D040F0020013
:10F65000A8E740F00100A5E7A8290020AC21002080
:10F66000A0280020164A10B512785AB148F20E02AE
:10F6700058B151B10B6843B1124A14683CB148F219
:10F68000040010BD48F2080010BD104610BD0D4C1E
:10F690001360083CD1F80530E3604B7A2374097994
:10F6A000917223F0050141F002011172D17921F02C
:10F6B000040141F00301D17100210170084610BD21
:10F6C0009C210020A82900207CB5044621480D4635
:10F6D000017848F20800002928D0811D2CB325B3F9
:10F6E0002178002922D11C49096800291ED06078A0
:10F6F00048F21001C8B918480C38807A012814D093
:10F70000A078072811D2154AC0EBC00002EB800098
:10F71000807EFF2809D0E96869B1AA685AB1142A25
:10F7200009D22878012802D005E008467CBD0A48A5
:10F730002038FCF7BDFE0748A1786A46103001F07A
:10F7400003FB2878064951F8202021466846904757
:10F750007CBD00009C210020A8290020A0280020BA
:10F76000CC1F0200F0B5254A48F20803127832B3E4
:10F770009A1D38B131B10C6824B18C6814B100788D
:10F78000E8B901E01046F0BD1D480068B8B100239B
:10F790001B4C1A460C3C1846A4F1FC05E67A86423E
:10F7A00002D1A67AB60722D40E7B964210D9C0EBBE
:10F7B000C00605EB8606B77EFF0702D008E01846B4
:10F7C000F0BD8F6847F822600C4E0836B054521CCA
:10F7D0000E799E420BD9C0EBC00605EB8606B77EBC
:10F7E000BF0704D40F68103647F823605B1C401C29
:10F7F0000728D3D30B710A730020F0BD9C21002091
:10F80000A82900200E4910B54A788C780023A2421E
:10F8100012D0521CD2B24A70022A00D14B70084A50
:10F820004B78183252F8232002600869104420F007
:10F830007F400861012010BD0360002010BD000062
:10F84000FC210020002808D0112801D0FDF78CBA37
:10F850000248416841F0080141607047B42100202E
:10F8600010B51F4C204621784068012910D002298C
:10F870002DD0032932D1000725D46069401C606176
:10F8800000F0D4FBD8B12078BDE8104001F02CBFC7
:10F89000000718D41348A28B017801EB810100EB1B
:10F8A0008100C188891A0904090CC18003D0BDE810
:10F8B000104002F037B8BDE81040FFF7A1B8BDE82E
:10F8C0001040FFF739B8BDE8104000F0B3BD06485E
:10F8D000617850F82100BDE81040004710BD0000DD
:10F8E000B4210020442A00201020020028DFFFF766
:10F8F000A9BF29DFFFF7A6BF20B10349496D016009
:10F9000000207047032070473C2B00200EB516A145
:10F910009DF8080020F00F00401C20F0F00010308F
:10F920008DF808000F2202A87CDF08B1FDF7F4F97A
:10F9300040F2C13078DF08B1FDF7EEF90020009009
:10F9400001900620ADF800001821ADF804002B202E
:10F95000ADF80600ADF8021068467ADF002801D045
:10F96000FDF7DAF90EBD00004E6F726469635F4BFC
:10F970006579626F617264000020704700207047F3
:10F98000002070472DE9F0474178DFF8A490054644
:10F99000C1EBC10209EB8200002401EB410109F136
:10F9A0001C0A4368274626460AEB810163B191F899
:10F9B0000AC05FEA0C6807D55FEA4C6C04D459F8BA
:10F9C000226000F108049FB20889D04633463A46C7
:10F9D0002146A9DF48F241090B281CD000B1484656
:10F9E000012E16D168784FF6FF7200EB400008EB4D
:10F9F00080000C210089A7DF00280AD0A0F5405123
:10FA0000023913D0082811D0891E0FD011280DD02B
:10FA10000020BDE8F0876878012300EB400008EB88
:10FA200080003A4600892146A9DFDBE74846F0E737
:10FA30008029002070B50C46014660780A4DC0EB65
:10FA4000C00005EB800038231C2201F027FA0028B3
:10FA500008D16178C1EBC10105EB81014A68521CF4
:10FA600000D14A6070BD0000802900202DE9F041DE
:10FA700086B0804603271420ADF8140048782A4E3B
:10FA800000EB400006EB80000D4600893B4605AACE
:10FA90006946AADF28BB6878A6F11C04C0EBC00049
:10FAA00004EB8000BDF8142069460830FCF72BFDFC
:10FAB0000028687807D0C0EBC00004EB80014968DB
:10FAC00081B11A4E0FE000EB400106EB8101897A0B
:10FAD000890724D4C0EBC00004EB80001C21FCF794
:10FAE00000FD1CE0124E44F820706878BDF8142028
:10FAF000C0EBC00004EB8000694642606878C0EB50
:10FB0000C00004EB80000830FCF7D2FC6878382392
:10FB1000C0EBC00004EB80011C224046B04706B099
:10FB20000020BDE8F08100009C290020B5100200F3
:10FB3000ED0F0200FFF726BFFFF77CBFFFF796BF70
:10FB40002DE9F041124E07460125BD403068FDF712
:10FB500067FA00280DD10F4C2069284207D138469A
:10FB600000F0CCFD0028E06805D0284304E0A8435D
:10FB70002061BDE8F081A843E0602069284320614E
:10FB8000A1683068BDE8F0410022FDF709BA000025
:10FB900024200200D821002070B51B4C20790007DA
:10FBA0002DD41A48017801EB810100EB81052E6903
:10FBB00001F049F9E9882A89761E11443144B1FBE4
:10FBC000F0F02169002549B16169814206D1E56003
:10FBD000606840F001006060002008E000F026FA54
:10FBE00010B10220E56002E0206920B10320BDE8E9
:10FBF000704001F0DBBEBDE87040FEF79DBEBDE881
:10FC0000704001F0C9BE0000B4210020442A002049
:10FC1000F0B58FB00F4605461C216846FCF761FC25
:10FC200000249DF80000039440F004008DF80000CB
:10FC3000012601948DF8366042F64C200494059418
:10FC40000694ADF834000C9438788DF8300078784C
:10FC50008DF831009DF832008DF8384020F0060014
:10FC6000801C20F019008DF83200142107A8FCF741
:10FC700038FC0DA807900CA80890ADF824600EA8D9
:10FC8000ADF82640ADF828600B90288905F5B773CC
:10FC900007AA6946A2DF0FB0F0BD70B590B00D465F
:10FCA00006461C2105A8FCF71CFC00249DF8140046
:10FCB000069440F002008DF814000A9401208DF89B
:10FCC0003E00089442F64A2009940B94ADF83C009B
:10FCD0000D9495F834008DF8340095F835008DF8C2
:10FCE00035009DF83600142120F00600801C20F01D
:10FCF00019008DF8360035F8300F8DF83800000AFD
:10FD00008DF83900A8788DF83A00E8788DF83B0036
:10FD100004256846FCF7E5FB0FA800900DA80190AC
:10FD2000ADF808500EA8ADF80A40ADF80C5004909C
:10FD3000308906F5B3736A4605A9A2DF10B070BD1D
:10FD400070B598B00024129408201394ADF84800C0
:10FD50009DF84C00149420F00F00401C20F0F0009F
:10FD600020308DF84C009DF84D00012520F00F004B
:10FD7000401C20F0F00020308DF84D009DF84E0022
:10FD8000ADF8505020F00F00401C20F0F000203063
:10FD90008DF84E008DF85240022015948DF85300D6
:10FDA0009DF855008DF84A4020F00F00401C20F0CF
:10FDB000F00020308DF855009DF856008DF84B501E
:10FDC00020F00F00401C20F0F00020308DF856008D
:10FDD000032648216846FCF784FB4F4800904F48B3
:10FDE000019012A8039014A805908DF810504C2093
:10FDF0008DF80840ADF824008DF8094048488DF88A
:10FE00000A500890079440F201108DF81840ADF8A0
:10FE100030009DF82C008DF8364020F00F00401C7B
:10FE200020F0F00020308DF82C009DF82D008DF88A
:10FE3000324020F0FF008DF82D009DF834008DF841
:10FE4000336020F00F00401C20F0F00020308DF8CF
:10FE500034009DF835000E9420F0FF008DF8350039
:10FE60009DF8430020F00F00401C20F0F0002030EF
:10FE70008DF843009DF8440020F00F00401C20F056
:10FE8000F00020308DF844009DF8450020F0FF0080
:10FE90008DF845009DF8460020F00F00401C20F032
:10FEA000F00020308DF846009DF8470020F00F004C
:10FEB000401C20F0F00020308DF847009DF83C00F9
:10FEC00020F00F00401C20F0F00020308DF83C00A6
:10FED0009DF83D00694620F00F00401C20F0F00026
:10FEE00020308DF83D009DF83E0020F0FF008DF899
:10FEF0003E009DF83F0020F00F00401C20F0F00075
:10FF000020308DF83F000748FDF781FE002801D022
:10FF1000FCF702FF18B070BDC1090200BD16020057
:10FF2000B0200020142500207FB50646887A0D46B3
:10FF300098B3E86888B300242CE0E86800EBC403B9
:10FF4000002003909DF80C0040F002008DF80C009A
:10FF50009979090702D040F0080001E020F008007C
:10FF600040F010008DF80C00D97904EB840001F00A
:10FF700001011A1D06EB4000CDE90021143002906A
:10FF800033F8022B03A9304601F0D4F8002805D13C
:10FF9000641CE4B2A87AA042CFD8002004B070BD9F
:10FFA000F8B51A4C207800282ED0206928B10026F8
:10FFB000E06820B1002526B110E00126F8E7012510
:10FFC000F9E7684652DF052803D020B1FCF7A4FE0C
:10FFD00004E0012602E021690098884785B960881D
:10FFE000ADF800006946A06861DF052803D020B1A4
:10FFF000FCF792FE04E0012502E0D4E90201884703
:020000040002F8
:10000000002EDED0002DD6D0F8BD00001C2200202E
:10001000054940880A88904204D34988884201D81B
:1000200001207047002070474021002070B50E4825
:10003000017801EB810100EB8104256900F003FFE9
:10004000E18822896D1E11442944B1FBF0F1074873
:1000500042698A4205D301D1006910B14FF0000016
:1000600070BD4FF0010070BD442A0020B421002073
:10007000800701D000207047012070477CB50446FE
:1000800001A800900D46002322460E4801F05EFABA
:10009000A0F5405104390AD0002807D0082805D01F
:1000A00043F20141884201D0FCF736FE7CBDBDF829
:1000B0000430A342FAD8224629460248FEF708FB3C
:1000C0007CBD00001425002030B51488E51C9D423D
:1000D00001D90C2030BD02250D5513881C245B1C52
:1000E0009BB21380CC5413885B1C9BB213800128F5
:1000F00007D0022807D0032807D0042807D00720FC
:1001000030BD002004E0012002E0CD5401E00320D6
:10011000C8541088401C1080002030BD0348017A6C
:10012000C90702D00078FEF765B97047FC200020AF
:100130002DE9F047DFF8ACA0DAF80C009AF800409F
:1001400080469AF80460DAF80890DAF810703AE01D
:1001500009EBC4052A7833E002EB42016B68521CBC
:1001600003EBC101AB78D2B2934200D100220B78ED
:10017000022B02D0032B23D11FE0D1F804C0034689
:10018000014603E0614503D00B46C969C1B1F9E7F7
:10019000B1B18B4205D1C06918B9134F0126BE60B9
:1001A0000027D1F800C0C969D96149B10B6863441F
:1001B0000B6005E00174C06900E000210028F9D15E
:1001C00069789142C8D1641EE4B2C1D2CAE903077A
:1001D0008AF80460404502D00120BDE8F087002085
:1001E000FBE70000FC210020001001402DE9F04752
:1001F00005462F48002680460778D0F80C904BE043
:10020000D8F8080000EBC70440E002D02846ED69AA
:100210001EE02078616800EB4002401CC0B201EB98
:10022000C2012070A278904200D126700A784868F6
:10023000012A2DD1027C5ABB8A684260CA6882605A
:100240000A69C2604969816198F8041001B1466089
:100250004268D8F81030DFF85CC0D11A21F07F4135
:10026000614502D28268114406E0991A826821F041
:100270007F418A4202D9511A016000E0066046605F
:10028000012186600174C66101F014FC002DBCD10F
:10029000207861788842BCD17F1EFFB2B0D2D8F8F6
:1002A0000C10494502D00120BDE8F0870020FBE793
:1002B000FC210020FFFF7F0098B0534B534A0521DB
:1002C0000020FCF725FE08B1FCF726FD504A01216D
:1002D0005048FCF7F3FD08B1FCF71EFD4E4A40F60E
:1002E000CD410320FEF734F808B1FCF715FD69464F
:1002F0000020FDF7F5FE08B1FCF70EFDFDF7E2FD6D
:10030000464A0A210820FCF7C3FD08B1FCF704FDAA
:100310000120FEF79FFDFFF7F9FA382101A8FCF74D
:10032000E0F802218DF80410012405208DF8064024
:100330008DF807003A4837490690ADF8144024225A
:1003400008310FA8FCF7B4F836480090364B0FAAD6
:10035000002101A8FDF708F808B1FCF7DDFCFEF765
:10036000B7FDFCF7C3FEFFF7EBFC304851210160FD
:100370006421C0E90114047301462948223001F0C8
:1003800041F91C216846FCF7ACF800244FF42030FA
:10039000CDE900404FF47020029003208DF80C004E
:1003A0002348ADF80E408DF81040CDE90540684671
:1003B000FDF7B0FA08B1FCF7AFFC1C481030002183
:1003C00080F83C4080F83D4080F83E4001EB41021F
:1003D00000EB8202491C54600529F7D30D48002226
:1003E0004FF480310068FCF7DBFD08B1FCF794FCAA
:1003F0000320FDF7E9F802E0FCF73AFD48DF0028AA
:10040000FAD0FCF789FCF7E7F9CE0100542200206E
:10041000BDD20100601F020085E2010064240020BB
:100420008620002065D30100FD070200A4260020DD
:1004300075EB01000348416821F008014160007834
:1004400001F052B9B4210020002360F30F031846D5
:1004500061F3174062F31F60704770B514468288DD
:100460000E4605462088111D0144921C994201D870
:10047000FE2A01D90C2070BD521C32542088FF2165
:10048000401C80B2208031542088401C80B22080E3
:100490008119288801F082FC2188084480B22080DC
:1004A000AA8842B1A96841B13044FCF701F820881C
:1004B000A98808442080002070BD072070BDF8B5D1
:1004C0000E46017814460546012901D1687830B1FD
:1004D0002088821C9A422DD8012902D006E00720EC
:1004E000F8BD69780144891C994223D8181A801EE6
:1004F00087B2ADF800702188B01C084469467DDFE2
:100500000028EDD12878022805D1BDF80010B942A5
:1005100001D809210AE00821012805D16878B842EC
:1005200002D8ADF8000001E0ADF80070BDF80000A1
:10053000FE2801D90C20F8BD2288401CB054208828
:10054000401C80B2208031542088401C2080BDF89F
:100550000010084420800020F8BD002070470020D3
:100560007047002070474907090E002806DA00F09E
:100570000F0202F1E02282F8141D03E000F1E022F4
:1005800082F8001400F01F02012191404009800010
:1005900000F1E020C0F88012C0F8001170470000A0
:1005A0002DE9F0478846814600F044FB0124224EA5
:1005B0000028484618D0FEF7E9F8304490F8480083
:1005C0008009032802D0012806D007E01B480068F4
:1005D00004FA09F4204201D1022100E00321484637
:1005E000BDE8F04700F0D9B800F030FB002820D07B
:1005F0004846FEF7CBF80546114F4FF4807007EBE5
:10060000850100EB8500D1F8102580B242F001028F
:10061000C1F8102500F0D0F8B8F1000F09D0484615
:10062000FEF7B4F856F82000002802D0AC40C7F816
:100630000443BDE8F0870000CC29002010050050DD
:10064000006000402DE9FC41DFF8A480044608EB7F
:100650000400002790F930001346C0170E46401CD6
:1006600001D0082740E0F27819462046FEF76AF8E4
:100670000546401C37D0B07848B1A00000F1A0403A
:10068000D0F8001721F00201C0F8001707E00021A0
:100690007378204600910A46019100F06DF8F078D9
:1006A000C0B11448317800EB8500D0F81025124B0A
:1006B0001A40C0F810254FF4F8524FF4403302EAC4
:1006C000042203EA01410A43D0F810150A43C0F896
:1006D000102509E008EB0500327810F8481F41EAC0
:1006E0008211017000E004273846BDE8FC8100005B
:1006F000CC29002000600040FFE0FCFF03490968AE
:10070000C14011F0010000D00120704710050050D9
:1007100070B5124D95F8540008B1082070BD002046
:10072000411E2A18401CC0B282F830102028F8D38D
:1007300000242046FDF7F8FF641CE4B20C2CF8D32B
:1007400006210846FFF70FFF05494FF00040C1F8AA
:100750000403012085F85400002070BDCC2900203E
:1007600000600040034890F85400002800D00120A9
:1007700070470000CC29002030B541EA4201DDE994
:10078000034541EA8301800041EA042100F1A040D1
:1007900041EA0541C0F8001730BD800000F5E06077
:1007A00000F1A040026822F440320260026842EA8E
:1007B0000141016070470000034908B50844002169
:1007C00001600068009008BD006000400249405888
:1007D000012800D0002070470060004040580028E9
:1007E00000D001207047D0F80403084000D0012059
:1007F00070474058002800D00120704700B595B0E0
:10080000092831D2DFE800F0150530071113131A5B
:100810003200052000E00220FDF78EFD002823D0E5
:1008200015B05DF804EBFCF777BA0420F4E7032079
:10083000F2E715B05DF804EB00F042BF08208DF838
:1008400004008DF80C0004A800900CA802906946E2
:100850001248FEF787FF08B1FCF75EFA6846FCF71E
:10086000A3FF17E0FCF758FA15B000BD0B480D3098
:100870000078FF28F8D0094869460D30FEF700FEE1
:10088000A0F500410539EFD008B1FCF745FA6846FC
:10089000FCF752FE0028E5D1E6E7000083200020A7
:1008A0007FB505460088274C11281DD00EDC012895
:1008B00016D0022827D0102807D10720FDF73CFDCD
:1008C00008B1FCF729FAA888A0807FBD3A2803D098
:1008D00051281ED05528F8D11321A08876DF15E0C5
:1008E0000120FDF7B7FE7FBD0020FDF7B3FE4FF6F8
:1008F000FF70A080002060701120FDF71DFD05E055
:10090000FCF70AFA7FBD0021A08867DF0028F7D135
:100910007FBDA9790029FBD0A87B042803D0062835
:1009200001D00528F4D102290AD001208DF8000059
:100930004FF4C170ADF804006946A088A8DFE5E770
:100940000220F3E7802000201CB58179022923D101
:10095000C179002920D101A8009000230122164866
:10096000FDF78DFA08B1FCF7D7F9144C6078002830
:100970009DF804004FEA80700FD000280CDB112096
:10098000FDF7DAFC08B1FCF7C7F90C490620203165
:10099000FFF774FB002060701CBD0028FCDA1020FB
:1009A000FDF7CAFC08B1FCF7B7F9044906201A3173
:1009B000FFF764FB0120EEE71425002080200020D3
:1009C0001FB508460C7800210123164A022C0ED0D0
:1009D000042C07D0052C03D0062C00D111701FBDAC
:1009E00013701FBD04B0BDE81040FFF7ADBF8DF818
:1009F000003002910391117829B18088A0F5285127
:100A0000223903D01FBD80790128FBD105486946F2
:100A10001030FEF759FE0828F4D00028F2D0FCF779
:100A20007BF91FBD8020002000B5538985B0022BC3
:100A300010D10368002B0DD0127B12F0010F01D0F2
:100A4000022200E003228DF800200968019102686B
:100A50006946904705B000BD00B5036885B0002B1E
:100A60000FD004238DF8003012680192CA89ADF8C6
:100A700008200A8A1231ADF80A20039102686946FB
:100A8000904705B000BD0000F0B50E4604468D1D30
:100A9000C988B0F86E010022012387B0814214D1C9
:100AA0006989204601290BD10168002908D0297BDA
:100AB00041B1012904D18DF80430026801A99047A1
:100AC00007B0F0BD8DF80420F7E76089814210D1AE
:100AD000698920460129F3D101680029F0D0297BDA
:100AE00029B10129ECD106218DF80410E5E7052193
:100AF000FAE7B4F8522142F62220914205D10022B1
:100B00001146FFF7A1FC009025E0B4F84E21914278
:100B100005D100221146FFF797FC00902BE0B4F8B6
:100B2000622142F633209142E9D0B4F85E2191422D
:100B3000EFD06F460022A07C15E000BF02EB8203DD
:100B400004EB43031B8B8B420BD1012142F64D205A
:100B5000FFF77AFC38602A4669462046FFF764FFB3
:100B6000AEE7521CD2B29042E8D83A46204600F096
:100B700019FC0028A4D06A4631462046FFF76CFFD6
:100B80009EE77FB50646087C0D4638B3686928B3F2
:100B9000002420E0686900EBC403002003909DF866
:100BA0000C001A1D40F00E008DF80C00D97904EBF2
:100BB000840001F0010106EB4000CDE900217A300C
:100BC000029033F8022B03A9304600F0B3FA002854
:100BD00005D1641CE4B2287CA042DBD8002004B01C
:100BE00070BD0021425C0AB101207047491C0629F2
:100BF000F8D300207047000070B50546C0EBC50172
:100C00000B4800EB81040020C4F81100A4F8150083
:100C100020461021FBF765FCFF202074A0764FF6DC
:100C2000FF7020832846BDE8704001F0BDB8000089
:100C3000A02800200449084490F93000082801DB6E
:100C40000120704700207047CC2900200449084447
:100C500090F93000082801D2012070470020704729
:100C6000CC29002070B50D00044602D10020FCF70D
:100C700053F814B90020FCF74FF8287820706988E1
:100C80006170090AA170A988E170090A2171E888D8
:100C90006071000AA07170BDF0B58FB00F460646B6
:100CA0001C216846FBF71DFC00249DF800000394FE
:100CB00040F006008DF80000012501948DF83650B3
:100CC00042F64E20049405940694ADF834000C943A
:100CD00038788DF8300078788DF831009DF8320042
:100CE000142120F00600801C20F019008DF832003D
:100CF00007A8FBF7F6FB0DA807900CA88DF8385055
:100D00000890ADF824500EA8ADF82640ADF8285054
:100D10000B90308906F10A0307AA6946A2DF0FB0DB
:100D2000F0BD000006490979490701D40820704741
:100D300020B1044949780160002070470E207047B7
:100D4000B4210020442A002030B5104B1B795B07EA
:100D500001D4082030BD18B112B104687CB901E09B
:100D60000E2030BD0A4B1D684DB140681D8901FB46
:100D7000050059685B8903FB0511814201D80720F2
:100D800030BDC2E90040002030BD0000B421002089
:100D9000102B0020F8B5054621480E460079400783
:100DA00001D40820F8BD15B1286870BB01E00E2001
:100DB000F8BD1C4C0027206838B36189228960681F
:100DC00001FB0201686881421FD9FFF751F970B138
:100DD000D5E9000200EB400004EB80004368018984
:100DE000D41AB4FBF1FC01FB1C4474B901E01020DF
:100DF000F8BDB6FBF1F401FB146434B92EB140899F
:100E0000324400FB0130824201D90720F8BD33464D
:100E10000022294603200097FDF7C8FDF8BD000019
:100E2000B4210020102B002010B54FF01020446991
:100E3000601C04D000F007F8B4FBF0F010BD4FF0D8
:100E40008050406910BD4FF08050006980B27047FB
:100E500070B5104800242546047044702846FDF7FC
:100E600095FD6D1C0A2DF9D30B4D6C80FFF7DCFF4F
:100E7000861EFFF7E8FF46430648AE60CC306C6143
:100E80000460048144812C70AC610420EC616860D2
:100E9000002070BD442A0020B42100202DE9F84331
:100EA000804623481F46164600790D46400702D467
:100EB0000820BDE8F8832DB1B8F1000F02D02868F2
:100EC00098B901E00E20F4E71A4C206868B16289F5
:100ED0002089616802FB00116A68914205D926B138
:100EE000B04202D3F119814201D90720E1E740461F
:100EF000FFF7BEF8D0B13846FFF7BAF8B0B168686E
:100F0000FFF7B6F890B168683246C1194046FBF762
:100F1000CFFA00962868002200EB4000434654F8C0
:100F2000204002212846A0470020C2E71020C0E749
:100F3000B4210020102B00202DE9F041294D04465A
:100F40000E462879400702D40820BDE8F081ECB1B4
:100F5000E6B12068D0B1FFF776FF0146A088814254
:100F600012D3102810D3E08870B1FFF75DFF471E41
:100F7000FFF769FF4743E288A188A86802FB0102E6
:100F8000974201D3890703D00720DEE70E20DCE774
:100F90006988012924D0C6E90010134A01EB4103F6
:100FA00002EB83014860206842F82300A088088192
:100FB000E0884881FFF747FFA188E288401E01FBD7
:100FC0000204FFF740FF94FBF0F4FFF73CFFA96831
:100FD00004FB0010A8606888401C68800020B4E70B
:100FE0000420B2E7B4210020102B0020F8B50446FD
:100FF0001C481E46154600790F46400701D40820BC
:10100000F8BD1FB114B1206898B901E00E20F8BDF9
:101010001548016869B142894168008902FB0011E5
:101020006268914205D925B1A84202D3A91981422B
:1010300001D90720F8BD3846FFF71AF878B13046D5
:10104000FFF716F858B16068FFF712F838B12B4671
:101050003A46214601200096FDF7A8FCF8BD102075
:10106000F8BD0000B4210020102B002010490246DA
:10107000087800281AD0042818D0022A14D0032A8D
:1010800014D10A7912070FD48A69521C8A61B2F509
:101090007A7F06D0022801D000F026BB487800F005
:1010A00085BC0D20FBF760BEFEF7DABB7047000081
:1010B000B4210020F8B504461C481E4615460079A8
:1010C0000F46400701D40820F8BD1FB114B12068B5
:1010D00098B901E00E20F8BD1548016869B1428950
:1010E0004168008902FB00116268914205D925B16F
:1010F000A84202D3A919814201D90720F8BD384678
:10110000FEF7B6FF78B13046FEF7B2FF58B160681F
:10111000FEF7AEFF38B12B463A4621460420009632
:10112000FDF744FCF8BD1020F8BD0000B4210020FC
:10113000102B00202DE9FF4F91B08346DDE91E58AA
:101140000878209E92460F46C0064FF0000414D542
:101150000D949DF8340020F00F00401C20F0F000AA
:1011600010308DF8340028788DF835009DF8360061
:1011700020F00600801C8DF836001C2105A8FBF726
:10118000B0F938788DF814000694089409943878EA
:10119000C00601D50DA800E00020CDE90A04012712
:1011A0008DF83A7042F64D20ADF838000C9468780E
:1011B0008DF83000A8788DF831009DF832001421A8
:1011C00020F00600801C68F3C30020F0100040F0FF
:1011D00001008DF832006846FBF783F90DF13808FD
:1011E0000DF13009ADF80840CDE90089ADF80A40AD
:1011F000ADF80CA00494BBF8080033466A4605A974
:10120000A2DF00282CD18DF83A7042F60810ADF814
:1012100038000C9468788DF83000A8788DF831008B
:101220009DF83200142120F00600801C20F01900E7
:101230008DF832006846FBF754F9CDE900890FA814
:101240001499FCF739FEADF80800ADF80C000FA8B2
:10125000ADF80A400490308806F108026946A3DF21
:1012600015B0BDE8F08F2DE9F04796B00D46064663
:101270001C2106A8FBF735F900249DF818000A94F4
:1012800040F002008DF818004FF0010807948DF827
:101290003E8042F64B2009940B940C94ADF83C0030
:1012A0000D9495F82C008DF8340095F82D008DF8EC
:1012B00035009DF83600142120F00600801C20F037
:1012C000180040F001008DF836006846FBF709F978
:1012D0000DF13C090DF1340ACDE9009AA88CADF866
:1012E0000800ADF80A40A88CADF80C00286A0490FC
:1012F000308906F5A2736A4606A9A2DF002807D145
:1013000095F8260008B1A86A08B1002744E0072034
:1013100016B0BDE8F0878DF83E8042F60710ADF8B4
:101320003C000D949DF8340010AA20F00F00401CE2
:1013300020F0F00020308DF834009DF835000EA923
:1013400020F0FF008DF835009DF8360020F00600F3
:10135000801C20F019008DF83600A86A00EB870089
:1013600065DF0028D4D114216846FBF7BAF89DF850
:101370003800ADF80800CDE9009AADF80C0010A8CF
:10138000ADF80A400490B6F8440106F5A672694625
:10139000A3DF0028BCD17F1C95F82600B842BADC38
:1013A0000020B5E770B51446002242F64D25837C37
:1013B0000BE000BF02EB820600EB4606B68A8E42C7
:1013C00001D1012123E0521CD2B29342F2D8002273
:1013D00090F878300CE000BF02EB820600EB460686
:1013E000B6F87A608E4201D1022110E0521CD2B2CE
:1013F0009342F1D8002290F8DE3010E002EB820632
:1014000000EB4606B6F8E0608E4206D1032128467E
:10141000FFF71AF82060012070BD521CD2B293422F
:10142000ECD8002070BD000070B5012670044FF0AC
:10143000E0210025C1F88001084C4010C4F84803A1
:10144000C4F8080366602F20FAF7E4FFA660044C96
:101450002F202561FAF7DEFFE57070BD0010014016
:10146000FC21002009480A490022C37DC1F8082157
:1014700043B1D1F81815437EC268D154417E491C4E
:1014800041767047D1F8180570470000242A0020E3
:10149000002000401FB501228DF8080004488DF897
:1014A00000200191D0E90012684690471FBD00005E
:1014B000242A002008B502490020009108BD000040
:1014C0008020002010B50121202803DA1D4A814028
:1014D000114004E0402803DAA0F12002914041B11C
:1014E000002809DA00F00F0101F1E02191F8141D44
:1014F00006E042F2010010BD00F1E02191F8001475
:101500004909082914D299B1012911D004290FD011
:1015100005290DD00C4A946800F01F030121994061
:10152000400944B152F820300B4342F8203007E024
:1015300042F2020010BD800000F1E020C0F800116E
:10154000002010BDFC06FFBC942B00202DE9FE4FAF
:10155000DFF87490DDF830A00E4683461C46154631
:101560000027E84608EB040000972A1B3119801C6D
:101570000197FAF79DFF02A90120FCF76DFE08B163
:10158000FBF7CAFB9DF8080028B19DF8000040F069
:1015900002008DF8000099F8000030B16A46082179
:1015A0005846FCF709FB58B906E06B4608220021B3
:1015B0005846FCF7E1FBF6E7641CA4B2AC42D1D973
:1015C000AAF80040BDE8FE8F8020002010B5036817
:1015D0000A6889689C1A8C4202D9591A016010BDA8
:1015E00001210260017110BD10B54B680268896865
:1015F0009C1A8C4202D91144016010BD0021036085
:10160000017110BD0A7B1AB149680160002102E036
:101610000968016001210171704710B50446007925
:101620000028204602D0FFF7DFFF01E0FFF7CEFFE2
:10163000206810BD2DE9F0410746806A14468846AF
:10164000C8B3002531E000BFB96A05EB450001EBE6
:101650008006B088801CFE2802D90C20BDE8F081ED
:101660002288401C08F8020020881622401C80B204
:10167000208008F800202088401C80B2208000EBE9
:101680000801308800F08AFB2188084480B220805D
:10169000B28842B1B16871B14044FAF709FF2088BD
:1016A000B188084420806D1CEDB297F82C00A84248
:1016B000CAD80020D2E7FFE70720CFE7FBF72CBB13
:1016C00010B50020FCF738FE08B1FBF725FBFCF74E
:1016D00065FD08B1FBF720FB3CDF002803D0BDE827
:1016E0001040FBF719BB10BD0C49087040B1012830
:1016F0000FD002280FD003280FD14869FEF7F6B8A3
:1017000000208861C86106484078002805D0FDF7B0
:1017100023B900F007B900F063B87047B421002086
:10172000442A002018B10349C860002070470E20E9
:10173000704700001C2200201CB503490191009154
:10174000694660DF1CBD00008020002070B50E4699
:101750000546144614211046FAF7C3FE01202080E6
:101760000021216121732672657205B1A0720020EB
:1017700070BD10B511B10020FBF7CEFABDE81040E6
:10178000FEF70EBC0021024A0846FBF721BB000011
:1017900073170200FBF7AEBA30B409B18C0702D060
:1017A000072030BC7047074C0125A16062800649C4
:1017B000636010DF0028F4D1257030BC1620FFF7DD
:1017C00081BE00001C2200209517020018B10349B9
:1017D0000861002070470E20704700001C22002086
:1017E0002DE9F041164C606820F00100606015485A
:1017F000017801EB810100EB81063569FFF723FBDE
:10180000B5FBF0F76761FFF71EFBF1886D1E2944F9
:10181000B1FBF0F08742606802D140F0020001E0C5
:1018200020F0020060602079E16800F002000843C7
:1018300004D00020BDE8F04100F0B8B80220F9E77C
:10184000B4210020442A002001484069FEF74EB828
:10185000B421002010B5FFF7E7FA441EFFF7F3FAB2
:101860004443FFF7F0FA05494A69521E5043CA68DB
:101870002146BDE81040FEF73CB80000B42100202E
:101880002DE9F0411048017801EB810100EB810462
:101890002569FFF7D8FAE188228911442944B1FB70
:1018A000F0F200FB1216FFF7BFFA471EFFF7CBFA64
:1018B00007FB0061E08822891044044A2844126929
:1018C000BDE8F041FEF715B8442A0020B4210020FD
:1018D00010B5FFF7A9FA441EFFF7B5FA4443FFF726
:1018E000B2FAB4FBF0F0BDE81040FDF7FFBF000016
:1018F00070B5FFF7A8FA8608FFF7A5FA0749496906
:1019000000FB01F4FFF790FA451EFFF79CFA6843CD
:1019100032462146BDE87040FDF7EBBFB421002000
:101920000020704770B51448017801EB810100EB8D
:101930008104241DFFF787FA6188104E884211D276
:10194000FFF781FA61880D1AFFF77DFA8208A188F6
:10195000E0680844216928442944FDF7CAFFFFF7DD
:1019600072FA07E0A288E06810448A082169FDF74E
:10197000C0FF6088F06170BD442A0020B4210020BF
:1019800004480079000702D4012000F00FB800F0ED
:1019900003B80000B42100200348416821F0080189
:1019A0004160407800F002B8B4210020024948703C
:1019B000024951F820000047B4210020FC1F02001A
:1019C00010B50446FFF752FB2046BDE81040FBF778
:1019D00099BD70B50C00054602D10020FBF79CF9BB
:1019E00015B90020FBF798F9207828702088000AA4
:1019F00068702068000CA8702068000EE8702079DC
:101A00002871207A68712089000AA871A068000CEA
:101A1000E87170BD03480079000701D4FCF78CBF62
:101A2000FFF7BABFB42100202DE9F84F204C002564
:101A30006846D4E903B6FDF7E5FE8046FEF778FB7D
:101A40000746A946B8F1000F25D00023009ACC46DE
:101A5000E06819E007680146974202D9BA1A0260A5
:101A600014E0C1F800C0D1F80C80D21BC8693B4417
:101A70008A46B8F1000F07D0F71827F07F47C1E971
:101A80000178CAF81C500D460028E3D1E0602846D2
:101A9000FEF7ACFB04E02846FEF7A8FB00B917B13F
:101AA0005846FCF7CDFF84F80490BDE8F88F00009D
:101AB000FC2100200D4B10B5D96831B102680C68CB
:101AC000A24204D8A21A0A60C161D86010BD0B46B8
:101AD00003E00B46C969121B21B10C689442F8D38C
:101AE000A41A0C600260C161D86110BDFC21002005
:101AF0002DE9F0411D4DEC68002C35D01C48002725
:101B000000682969B846401A20F07F462068B04234
:101B100015D82246361A0744E469107C68B182F869
:101B200010806B6933B1D2E90501984728B1FBF702
:101B3000F3F802E0D2E905108847002CE6D1697875
:101B4000A878814206D1401CC0B2A870022801D1F9
:101B500085F802800548A978183040F82170BDE862
:101B6000F0411420FAF7C6BDBDE8F081FC21002049
:101B700004150140064A0020C2F81C010548838A6A
:101B80008168C95C838A5B1C8382C2F81C1570471C
:101B900000200040242A00201FB500218DF80800F5
:101BA00005488DF80010826801928175D0E9001215
:101BB000684690471FBD0000242A00202DE9FF4100
:101BC0003E4D4FF400712846FEF70DFE01273C4CB8
:101BD0004FF40178002600B34FF492712846FEF7C7
:101BE000FDFDD0B1C5F82461C5F80883A07E00B919
:101BF0006F6002208DF80000D5F88004C5F88004DD
:101C00000390E07D8DF80800E0680190E675267687
:101C1000D4E900126846904724E004212846FEF7E4
:101C2000E2FDF8B14FF484712846FEF7D7FDC8B144
:101C3000FFF718FCE07D617E884213D1227E3AB125
:101C4000607EE168E2752269E2602676667607E0EA
:101C5000A07E00B96F60C5F80883E675607EE16814
:101C6000FFF718FC4FF48E712846FEF7B7FD58B108
:101C7000A18AA07D814202D2FFF77CFF04E0C5F873
:101C80001C6108B1FFF788FF4FF4A2712846FEF7E8
:101C9000A5FD00280FD0C5F84461A07E00B12F60DB
:101CA000E07D002807D0E675607EE16804B0BDE8FD
:101CB000F041FFF7EFBBBDE8FF81000000200040CE
:101CC000242A00207FB5334C4FF492712046FEF752
:101CD00090FD314D0026B0B1C4F8246102208DF88A
:101CE0000000D4F88004C4F880040390D4F83C05C4
:101CF0008DF80800E8680190EE752E76D5E900129F
:101D0000684690471FE04FF488712046FEF771FD4A
:101D1000C8B1C4F81061D4F83C05E97DC0B2814275
:101D200011D12A7E5AB1E968D4F8003223F0200399
:101D3000C4F80032EA752A69EA602E7601E0EE7591
:101D4000E968FFF7A7FB4FF4A2712046FEF751FDAB
:101D500050B1C4F84461E87D30B1EE75D4F83C056B
:101D6000E968C0B2FFF796FB4FF490712046FEF78A
:101D700040FD00280CD0C4F82061A87D002807D0C1
:101D8000D4F84C0504B0C0B2BDE87040FFF704BF02
:101D90007FBD000000200040242A00200870000AB7
:101DA00048700220704700000121814002484268CB
